:100000000C942A000C9447000C9447000C94470071
:100010000C9447000C9447000C9447000C94470044
:100020000C9447000C9447000C9447000C94470034
:100030000C9447000C9447000C9447000C94470024
:100040000C9447000C9447000C9447000C94470014
:100050000C94470011241FBECFE5D8E0DEBFCDBF12
:1000600010E0A0E6B0E0E4E3F9E202C005900D92F2
:10007000AC3EB107D9F711E0ACEEB0E001C01D9283
:10008000AC30B107E1F70E9459110C9498140C940C
:10009000000089E085BB88EE93E024E630E0F901BA
:1000A0003197F1F70197D9F78FE085BB88EE93E0A0
:1000B00024E630E0F9013197F1F70197D9F785E0AF
:1000C00085BB8CED95E024E630E0F9013197F1F73E
:1000D0000197D9F78FE085BB8091E8009091E90006
:1000E0008430910519F481E090E001C0019690936D
:1000F000E9008093E8008FE085BB089589E085BB27
:1001000088EE93E024E630E0F9013197F1F70197AA
:10011000D9F78FE085BB88EE93E024E630E0F90163
:100120003197F1F70197D9F78AE085BB8CED95E01F
:1001300024E630E0F9013197F1F70197D9F78FE024
:1001400085BB8091E8009091E9008130910519F418
:1001500084E090E001C001979093E9008093E8006B
:10016000089581E088BB80E197E20197F1F718BA22
:1001700080E593EC0197F1F7089589E085BB88EE5F
:1001800093E024E630E0F9013197F1F70197D9F7D0
:100190008FE085BB88EE93E024E630E0F9013197EB
:1001A000F1F70197D9F78AE085BB8AEA95E024E662
:1001B00030E0F9013197F1F70197D9F78FE085BB6E
:1001C0008091E8009091E9008130910519F484E074
:1001D00090E001C001979093E9008093E8008FE0E0
:1001E00085BB8AE085BB8CED95E024E630E0F90123
:1001F0003197F1F70197D9F78FE085BB8091E8003F
:100200009091E9008130910519F484E090E001C0FB
:1002100001979093E9008093E8008FE085BB0895F3
:100220008AE085BB8AEA95E024E630E0F90131975F
:10023000F1F70197D9F78FE085BB8091E8009091A5
:10024000E9008130910519F484E090E001C0019744
:100250009093E9008093E8008FE085BB8AE085BB3E
:100260008CED95E024E630E0F9013197F1F7019744
:10027000D9F78FE085BB8091E8009091E90081304B
:10028000910519F484E090E001C001979093E90092
:100290008093E8008FE085BB089581E088BB80E112
:1002A00097E20197F1F718BA80E593EC0197F1F71F
:1002B00082E082BB88EE93E024E630E0F9013197DA
:1002C000F1F70197D9F78FE082BB88EE93E024E63F
:1002D00030E0F9013197F1F70197D9F784E082BB5B
:1002E00080E293E024E630E0F9013197F1F70197DD
:1002F000D9F78FE082BB88EE93E024E630E0F90185
:100300003197F1F70197D9F781E082BB80ED97E053
:1003100024E630E0F9013197F1F70197D9F78FE042
:1003200082BB88EE93E024E630E0F9013197F1F7E3
:100330000197D9F788E082BB88EB9BE024E630E0A8
:10034000F9013197F1F70197D9F78FE082BB20E5EA
:1003500033ECC9010197F1F781E088BB80E197E2B6
:100360000197F1F718BAC9010197F1F7089584E0F0
:1003700082BB80E69AEE0197F1F78FE082BB8CEBAF
:1003800092E024E630E0F9013197F1F70197D9F7CF
:1003900082E082BB8CEB92E024E630E0F9013197F9
:1003A000F1F70197D9F78FE082BB8CEB92E024E65E
:1003B00030E0F9013197F1F70197D9F788E082BB76
:1003C00084EC99E024E630E0F9013197F1F70197E8
:1003D000D9F78FE082BB8CEB92E024E630E0F901A4
:1003E0003197F1F70197D9F781E082BB8CED95E069
:1003F00024E630E0F9013197F1F70197D9F78FE062
:1004000082BB0895CA9904C0CB9902C0C99B75C02C
:100410006091EA007091EB002091E0003091E100E2
:100420004091EC00E199FECF7FBB6EBBC901E3E0D8
:10043000220F331FEA95E1F7880F991F280F391F04
:10044000420F4DBB0FB6F894E29AE19A0FBE6230AC
:10045000710551F481E088BB80E197E20197F1F7E3
:1004600018BA80E593EC41C06330710559F441E05E
:1004700048BB20E137E2C9010197F1F718BA80E5DE
:1004800093EC2BC06430710559F441E048BB20E186
:1004900037E2C9010197F1F718BA80E593EC15C06E
:1004A0006530710521F541E048BB20E137E2C90123
:1004B0000197F1F718BA80E593ECFC013197F1F759
:1004C00048BBF9013197F1F718BAFC013197F1F700
:1004D00048BBF9013197F1F718BAFC013197F1F7F0
:1004E00048BBF9013197F1F718BA0197F1F76F5F3F
:1004F0007F4F7093EB006093EA000895EF92FF92B4
:100500000F931F93CF93DF9389E085BB8CEB92E031
:1005100024E630E0F9013197F1F70197D9F72091FE
:10052000FA003091FB00AFE0EA2EC4E6D0E0F9E03B
:10053000FF2E01E018E078C089B385738131C1F0E6
:1005400089B38573803121F089B38573843111F4C7
:1005500015BB6AC089B38573813021F089B3857377
:10056000853011F405BB60C089B38573813111F406
:10057000F5BA5AC089B38573853111F4E5BA54C010
:1005800089B38573813309F04FC080910001909148
:10059000010190930701809306018091FE009091E4
:1005A000FF0090930B0180930A018091FC009091D1
:1005B000FD009093050180930401809108019091C2
:1005C000090190930301809302012115310561F423
:1005D000E5BA88EE93E0FE013197F1F70197D9F77C
:1005E0000E944D0121E030E08091060190910701C9
:1005F000909301018093000180910A0190910B0179
:100600009093FF008093FE0080910401909105017A
:100610009093FD008093FC00809102019091030172
:10062000909309018093080189B3837309F084CF03
:1006300089B3897309F080CF3093FB002093FA00CF
:100640008FE085BB80E395E70197F1F78091E800A3
:100650009091E9008330910531F48091E000909110
:10066000E100019611C08230910531F48091EC00D7
:100670009091ED00019614C08130910551F4809164
:10068000E0009091E10001979093E1008093E000F9
:100690000BC0049749F48091EC009091ED00019714
:1006A0009093ED008093EC00DF91CF911F910F911B
:1006B000FF90EF90089589E085BB8CEB92E024E6F3
:1006C00030E0F9013197F1F70197D9F724C089B3E8
:1006D00085738131C1F089B38573803121F089B38D
:1006E0008573843111F495BB1AC089B38573813049
:1006F00021F089B38573853011F425BB10C089B30F
:100700008573813111F435BB0AC089B38573853196
:1007100031F445BB04C04FE039E021E098E089B3F3
:1007200085738133A1F60895EF92FF920F931F9383
:10073000CF93DF9318E0C4E6D0E00FE0E02EB9E0FD
:10074000FB2E01E041C089B38F738131C1F089B3C1
:100750008F73883121F089B38F738C3111F415BBFD
:1007600033C089B38F73833021F089B38F7387309F
:1007700011F405BB29C089B38F738B3111F4F5BA1D
:1007800023C089B38F738F3111F4E5BA1DC089B3CB
:100790008F73803119F40E947E0016C089B38F7365
:1007A000813091F40E94490012BB84EC99E0FE0173
:1007B0003197F1F70197D9F7E2BA8CEB92E0FE019D
:1007C0003197F1F70197D9F789B38573813309F030
:1007D000BACFDF91CF911F910F91FF90EF900895C5
:1007E000DC01DC96ED91FC91DD97ED31F10559F0DE
:1007F0003196DD96FC93EE93DC97EE0FFF1FEA0F28
:10080000FB1F718360830895DC01DC962D913C9180
:10081000DD978FEF2F3F380719F4E0E0F0E00EC0CE
:10082000F901EE0FFF1FEA0FFB1F0190F081E02D91
:1008300021503040DD963C932E93DC97CF010895F4
:10084000DF93CF93CDB7DEB725964EAD5FAD25973D
:1008500023968EAD9FAD2397FC01EE0FFF1F25E081
:1008600030E02C0F3D1FE20FF31F9C010BC0808175
:10087000918132974817590719F420E030E006C0FB
:100880002150304037FFF3CF21E030E0C901CF9154
:10089000DF910895DF93CF93CDB7DEB72396EEAD0A
:1008A000FFAD2397EE0FFF1F85E090E08C0F9D1F9B
:1008B000E80FF91F80819181CF91DF9108950F9307
:1008C0001F93DF93CF93CDB7DEB7EE970FB6F894B3
:1008D000DEBF0FBECDBF8C0161157105C9F1DE0110
:1008E0001196FC018EE301900D928150E1F72DAD40
:1008F0003EADC901880F991FFE013196E80FF91F1F
:1009000008C0808191812150304032976817790763
:10091000F9F037FFF6CF13C03196D801DD96FC937E
:10092000EE93DC97EE0FFF1FE00FF11F71836083E2
:10093000FA018081918101969183808309C0D80159
:10094000DC96ED91FC91DD97ED31F10529F7F0CFC3
:10095000EE960FB6F894DEBF0FBECDBFCF91DF91FC
:100960001F910F9108950F931F93DF93CF93CDB7EE
:10097000DEB7EE970FB6F894DEBF0FBECDBF8C0189
:1009800061157105C9F1DE011196FC018EE301903C
:100990000D928150E1F72DAD3EADC901880F991F31
:1009A000FE013196E80FF91F08C080819181215026
:1009B0003040329768177907F9F037FFF6CF13C048
:1009C0003196D801DD96FC93EE93DC97EE0FFF1F76
:1009D000E00FF11F71836083FA018081918101969C
:1009E0009183808309C0D801DC96ED91FC91DD975D
:1009F000ED31F10529F7F0CFEE960FB6F894DEBF92
:100A00000FBECDBFCF91DF911F910F9108950F932E
:100A10001F93DF93CF93CDB7DEB7EE970FB6F89461
:100A2000DEBF0FBECDBF8C0161157105C9F1DE01BE
:100A30001196FC018EE301900D928150E1F72DADEE
:100A40003EADC901880F991FFE013196E80FF91FCD
:100A500008C0808191812150304032976817790712
:100A6000F9F037FFF6CF13C03196D801DD96FC932D
:100A7000EE93DC97EE0FFF1FE00FF11F7183608391
:100A8000FA018081918101969183808309C0D80108
:100A9000DC96ED91FC91DD97ED31F10529F7F0CF72
:100AA000EE960FB6F894DEBF0FBECDBFCF91DF91AB
:100AB0001F910F9108950F931F93DF93CF93CDB79D
:100AC000DEB7EE970FB6F894DEBF0FBECDBF8C0138
:100AD00061157105C9F1DE011196FC018EE30190EB
:100AE0000D928150E1F72DAD3EADC901880F991FE0
:100AF000FE013196E80FF91F08C0808191812150D5
:100B00003040329768177907F9F037FFF6CF13C0F6
:100B10003196D801DD96FC93EE93DC97EE0FFF1F24
:100B2000E00FF11F71836083FA018081918101964A
:100B30009183808309C0D801DC96ED91FC91DD970B
:100B4000ED31F10529F7F0CFEE960FB6F894DEBF40
:100B50000FBECDBFCF91DF911F910F910895DC01A2
:100B60009B0140E050E020C080819181A817B90727
:100B700071F49A01A3E0220F331FAA95E1F7440F05
:100B8000551F240F351F260F371FC90108956F5FAA
:100B90007F4F32966430710539F74F5F5F4F285FA2
:100BA0003F4F4430510521F0F90160E070E0DCCFA7
:100BB00008950F931F93CF93DF939C018B016AE0FD
:100BC00070E00E9471147093010160930001C901EB
:100BD0006AE070E00E947114FC019093FF00809322
:100BE000FE00C8016AE070E00E9471147093FD007D
:100BF0006093FC00C8016AE070E00E9471149C01DF
:100C000090930901809308012E1B3F0B12161306C7
:100C10000CF066C08091E8009091E9008330910566
:100C2000B1F40E947E00C0E0D0E003C00E947E02CA
:100C3000219680910801909109012091FE00309148
:100C4000FF00821B930BC817D90784F3B0C0813013
:100C50009105B1F40E944900C0E0D0E003C00E94B9
:100C60007E02219680910801909109012091FE0059
:100C70003091FF00821B930BC817D90784F397C0EC
:100C800084309105B1F40E94BD00C0E0D0E003C003
:100C90000E947E0221968091080190910901209185
:100CA000FE003091FF00821B930BC817D90784F315
:100CB0007EC0029709F07BC0C0E0D0E003C00E9474
:100CC0007E02219680910801909109012091FE00F9
:100CD0003091FF00821B930BC817D90784F367C0BC
:100CE000232B09F464C08091E8009091E9008130E1
:100CF0009105B1F40E947E00C0E0D0E003C00E94E4
:100D00007E0221968091FE009091FF0020910801C3
:100D100030910901821B930BC817D90784F347C090
:100D200083309105B1F40E944900C0E0D0E003C0D7
:100D30000E947E0221968091FE009091FF002091FA
:100D4000080130910901821B930BC817D90784F35E
:100D50002EC084309105A1F4C0E0D0E003C00E9411
:100D60007E0221968091FE009091FF002091080163
:100D700030910901821B930BC817D90784F317C060
:100D80000297A9F40E94BD00C0E0D0E003C00E9419
:100D90007E0221968091FE009091FF002091080133
:100DA00030910901821B930BC817D90784F3209156
:100DB000FC003091FD008091000190910101281B01
:100DC000390B121613060CF066C08091E800909162
:100DD000E90083309105A1F4C0E0D0E003C00E9497
:100DE0007E0221968091FC009091FD0020910001EF
:100DF00030910101821B930BC817D90784F3B2C04D
:100E000081309105B1F40E94BD00C0E0D0E003C084
:100E10000E947E0221968091FC009091FD0020911D
:100E2000000130910101821B930BC817D90784F38D
:100E300099C084309105B1F40E947E00C0E0D0E0FA
:100E400003C00E947E0221968091FC009091FD00DB
:100E50002091000130910101821B930BC817D90723
:100E600084F380C0029709F07DC00E944900C0E071
:100E7000D0E003C00E947E0221968091FC009091F8
:100E8000FD002091000130910101821B930BC817D6
:100E9000D90784F367C0232B09F464C08091E8006C
:100EA0009091E90083309105B1F40E94BD00C0E04B
:100EB000D0E003C00E947E022196809100019091B3
:100EC00001012091FC003091FD00821B930BC8179B
:100ED000D90784F347C081309105A1F4C0E0D0E088
:100EE00003C00E947E022196809100019091010131
:100EF0002091FC003091FD00821B930BC817D9078D
:100F000084F330C082309105B1F40E947E00C0E0CD
:100F1000D0E003C00E947E02219680910001909152
:100F200001012091FC003091FD00821B930BC8173A
:100F3000D90784F317C00497A9F40E944900C0E0C0
:100F4000D0E003C00E947E02219680910001909122
:100F500001012091FC003091FD00821B930BC8170A
:100F6000D90784F3DF91CF911F910F9108954F928C
:100F70005F926F927F928F929F92AF92BF92CF9229
:100F8000DF92EF92FF920F931F93DF93CF93CDB732
:100F9000DEB762964FAC629763965FAC63976196DB
:100FA0008EAD9FAD61972FEF8F3F920709F498C0E8
:100FB0003C018C0191C08FEF0F3F180719F4E0E05E
:100FC000F0E00EC0F801EE0FFF1F83E190E08C0F00
:100FD0009D1FE80FF91F0190F081E02D0150104096
:100FE0006201920140E050E020C08D919C911197E8
:100FF000E817F90769F44A01E3E0880C991CEA95BF
:10100000E1F7440F551F840E951E860E971E11C0E2
:101010006F5F7F4F12966430710539F74F5F5F4FF6
:10102000285F3F4F4430510521F0D90160E070E066
:10103000DCCF9FEF0F3F190719F4EE24FF240DC0FA
:10104000F801EE0FFF1F83E190E08C0F9D1FE80F6A
:10105000F91FE080F1800150104040E050E021C0D5
:1010600080819181E816F90669F45A0193E0AA0C8F
:10107000BB1C9A95E1F7440F551FA40EB51EA60E92
:10108000B71E13C06F5F7F4F32966430710541F712
:101090004F5F5F4F88E090E0C80ED91E4430510585
:1010A00021F0F60160E070E0DBCFC401B5010E94E1
:1010B000D9050D31110569F00F5F1F4FF801EE0FD3
:1010C000FF1F83E190E08C0F9D1FE80FF91FF18255
:1010D000E082089461087108161417040CF46BCFB1
:1010E000CF91DF911F910F91FF90EF90DF90CF9004
:1010F000BF90AF909F908F907F906F905F904F9038
:101100000895CF92DF92EF92FF920F931F93DF9398
:10111000CF93CDB7DEB7EE970FB6F894DEBF0FBE14
:10112000CDBF6C019B017A01CB016AE070E00E94A7
:1011300071148B01C9016AE070E00E947114AC0166
:101140000330110594F5F8013196B3E0EE0FFF1F5F
:10115000BA95E1F7EC0DFD1D880F991FE80FF91FF7
:10116000608171816115710501F1FE013196DE0129
:10117000A75BBF4F8EE30D9001928150E1F72DAD3B
:101180003EADC901880F991FDE011196A80FB91F46
:1011900009C08D919C91119721503040129768178A
:1011A000790719F037FFF5CFB3C0433051059CF5EF
:1011B000F801B3E0EE0FFF1FBA95E1F7EC0DFD1D4E
:1011C000CA010196880F991FE80FF91F608171818C
:1011D0006115710501F1FE013196DE01A75BBF4F7C
:1011E0008EE30D9001928150E1F72DAD3EADC90126
:1011F000880F991FDE011196A80FB91F09C08D91A4
:101200009C9111972150304012976817790719F077
:1012100037FFF5CF84C0101611069CF5F801319701
:10122000B3E0EE0FFF1FBA95E1F7EC0DFD1DCA010B
:10123000880F991FE80FF91F608171816115710591
:1012400001F1FE013196DE01A75BBF4F8EE30D90E9
:1012500001928150E1F72DAD3EADC901880F991F74
:10126000DE011196A80FB91F09C08D919C911197AD
:101270002150304012976817790719F037FFF5CFE2
:1012800055C01416150694F593E0000F111F9A959A
:10129000E1F70C0D1D1D41505040440F551F400FEC
:1012A000511FFA014081518141155105F9F0DE01CC
:1012B0001196FE01E75BFF4F8EE301900D92815086
:1012C000E1F72DAD3EADC901880F991FFE013196A2
:1012D000E80FF91F08C0808191812150304032977A
:1012E0004817590719F037FFF6CF27C0F70180815B
:1012F0009181EE960FB6F894DEBF0FBECDBFCF91B1
:10130000DF911F910F91FF90EF90DF90CF900895A4
:10131000F7018081918101969183808346CFF70107
:101320008081918101969183808375CFF7018081BF
:101330009181019691838083A4CFF701808191816F
:10134000019691838083D2CF2F923F924F925F92EA
:101350006F927F928F929F92AF92BF92CF92DF92C5
:10136000EF92FF920F931F93DF93CF93CDB7DEB72A
:10137000CC59D1400FB6F894DEBF0FBECDBF7C0173
:101380001A821982DE01AB5DBE4F84E6FD01119227
:101390008A95E9F7FE01E759FF4F8FEF9FEF9183A1
:1013A00080831C821B82C556DE4F99838883CB596C
:1013B000D14087EEC82ED12CCC0EDD1E0DE2202EA2
:1013C000312C2C0E3D1E4F015E010894A11CB11C56
:1013D000B8C313E0660F771F1A95E1F76E0D7F1DF6
:1013E0004091F2005091F300FA01EE0FFF1FE60F5B
:1013F000F71F008111810115110509F48EC0D60176
:10140000F1018EE301900D928150E1F7D601DC9657
:101410002D913C91DD97F901EE0FFF1FEC0DFD1DA5
:1014200008C08081918121503040329708171907F8
:1014300069F037FFF6CF35C73196D401ED93FC93B1
:10144000EE0FFF1FEA0DFB1D15A704A74330510542
:101450006CF44F5F5F4F440F551F640F751FFB0106
:1014600060817181C101A5010E940705E091F00032
:10147000F091F1001E161F06B4F4319783E0EE0FD1
:10148000FF1F8A95E1F7EE0DFF1D8091F20090910C
:10149000F300880F991FE80FF91F60817181C10166
:1014A000A5010E945B058091F2009091F30018164F
:1014B0001906B4F4E091F000F091F10013E0EE0FA2
:1014C000FF1F1A95E1F7EE0DFF1D0197880F991F79
:1014D000E80FF91F60817181C101A5010E945F04BD
:1014E000E091F000F091F100E330F105B4F43196B1
:1014F000A3E0EE0FFF1FAA95E1F7EE0DFF1D80910F
:10150000F2009091F300880F991FE80FF91F608196
:101510007181C101A5010E94B304C556DE4F288127
:101520003981CB59D1402F5F3F4FC556DE4F3983AC
:101530002883CB59D140E091F000F091F10063E0B5
:10154000EE0FFF1F6A95E1F7EE0DFF1D8091F2008F
:101550009091F300880F991FE80FF91F20813181C6
:10156000C90143E0880F991F4A95E1F7220F331F05
:10157000820F931F29813A81820F931FC556DE4F38
:10158000E881F981CB59D140EE0FFF1FA5E2B1E010
:10159000AC0FBD1FEA0FFB1F918380836AE070E0F0
:1015A0000E947114892B09F045C211C0118210826A
:1015B000C556DE4F28813981CB59D140215030406A
:1015C000C556DE4F39832883CB59D14032974080AE
:1015D0005180C2016AE070E00E9471149C01823067
:1015E000910524F3C2016AE070E00E947114AB011E
:1015F000BE016B5F7F4F00E010E0D601F1018EE38A
:1016000001900D928150E1F7D601DC96ED91FC91AD
:10161000DD97EE0FFF1FEC0DFD1D60807180FB015B
:1016200071826082D4018D919C91BFEF8F3F9B07A7
:1016300021F00197F401918380830F5F1F4FD60142
:10164000F1018EE301900D928150E1F76E5F7F4FC3
:10165000D601DC96ED91FC91DD97EE0FFF1FEC0DAE
:10166000FD1D808191818417950739F6223031055F
:1016700009F06DC002501040000F111F0A0D1B1D14
:10168000D8011496ED91FC911597B70120E030E058
:1016900026C08D919C911197E817F90799F4F901EB
:1016A00093E0EE0FFF1F9A95E1F7220F331FE20F31
:1016B000F31FE40FF51FC756DE4FF983E883C959BE
:1016C000D14011C04F5F5F4F12964430510509F76A
:1016D0002F5F3F4F685F7F4F2430310521F0DB01E2
:1016E00040E050E0D6CFC756DE4F88819981C95976
:1016F000D1406AE070E00E947114FB0103E0EE0F3C
:10170000FF1F0A95E1F7EE0DFF1DC756DE4F8881DA
:101710009981C959D1406AE070E00E947114880F24
:10172000991FE80FF91F11821082D401ED91FC91ED
:101730001197ED31F10509F414C13196ED93FC9345
:10174000EE0FFF1FEA0DFB1D75A664A60AC123302C
:10175000310509F06AC0F8013397EE0FFF1FEA0D5B
:10176000FB1DA481B581B70120E030E025C0808158
:101770009181A817B90799F4F90173E0EE0FFF1FE3
:101780007A95E1F7220F331FE20FF31FE40FF51FE5
:10179000C956DE4FF983E883C759D14011C04F5F66
:1017A0005F4F32964430510511F72F5F3F4F685F0E
:1017B0007F4F2430310521F0FB0140E050E0D7CFCE
:1017C000C956DE4F88819981C759D1406AE070E0DF
:1017D0000E947114FB0153E0EE0FFF1F5A95E1F7D1
:1017E000EE0DFF1DC956DE4F88819981C759D14042
:1017F0006AE070E00E947114880F991FE80FF91FCA
:1018000011821082D401ED91FC911197ED31F10517
:1018100049F03196ED93FC93EE0FFF1FEA0DFB1D8F
:1018200075A664A60250104085C02430310509F029
:1018300098C0F8013497EE0FFF1FEA0DFB1DA4813D
:10184000B581B70120E030E025C080819181A817E3
:10185000B90799F4F90193E0EE0FFF1F9A95E1F7AC
:10186000220F331FE20FF31FE40FF51FCB56DE4F9D
:10187000F983E883C559D14011C04F5F5F4F32965D
:101880004430510511F72F5F3F4F685F7F4F243081
:10189000310521F0FB0140E050E0D7CFCB56DE4FC1
:1018A00088819981C559D1406AE070E00E94711425
:1018B000FB01B3E0EE0FFF1FBA95E1F7EE0DFF1D40
:1018C000CB56DE4F88819981C559D1406AE070E0DE
:1018D0000E947114880F991FE80FF91F118210825E
:1018E000D401ED91FC911197ED31F10549F031965C
:1018F000ED93FC93EE0FFF1FEA0DFB1D75A664A68A
:10190000F8013297EE0FFF1FEA0DFB1D84819581D0
:10191000D401ED91FC911197ED31F10549F031962B
:10192000ED93FC93EE0FFF1FEA0DFB1D95A784A717
:1019300003501040000F111F0A0D1B1DF801848178
:101940009581D401ED91FC911197ED31F10549F0AC
:101950003196ED93FC93EE0FFF1FEA0DFB1D95A74B
:1019600084A7D601F1018EE301900D928150E1F739
:10197000D601DC96ED91FC91DD97EE0FFF1FEC0D8B
:10198000FD1D0190F081E02DB70120E030E026C080
:101990008D919C911197E817F90799F4F90193E05B
:1019A000EE0FFF1F9A95E1F7220F331FE20FF31F8F
:1019B000E40FF51FCD56DE4FF983E883C359D140BC
:1019C00011C04F5F5F4F12964430510509F72F5FEA
:1019D0003F4F685F7F4F2430310521F0DB0140E04D
:1019E00050E0D6CFC556DE4FE881F981CB59D140C2
:1019F000EE0FFF1F25E231E02C0F3D1FE20FF31F1A
:101A000008944108510851824082CD56DE4F8881AA
:101A10009981C359D1406AE070E00E9471147093BB
:101A2000F1006093F000CD56DE4F88819981C35953
:101A3000D14055C0D601F1018EE301900D92815045
:101A4000E1F7D601DC96ED91FC91DD97EE0FFF1FDB
:101A5000EC0DFD1D0190F081E02DB70120E030E09C
:101A600026C08D919C911197E817F90799F4F90117
:101A7000B3E0EE0FFF1FBA95E1F7220F331FE20F1D
:101A8000F31FE40FF51FCF56DE4FF983E883C159EA
:101A9000D14011C04F5F5F4F12964430510509F796
:101AA0002F5F3F4F685F7F4F2430310521F0DB010E
:101AB00040E050E0D6CFCF56DE4F88819981C159A2
:101AC000D1406AE070E00E9471147093F10060935D
:101AD000F000CF56DE4F88819981C159D1406AE02C
:101AE00070E00E9471149093F3008093F200D6018D
:101AF000F1018EE301900D928150E1F7F601A4AD62
:101B0000B5ADAA0FBB1FAC0DBD1DE091E200F09179
:101B1000E30063E0EE0FFF1F6A95E1F7EE0DFF1D96
:101B20008091E4009091E500880F991FE80FF91F5C
:101B30002D913C918081918128173907D1F01A822B
:101B400019826091F0007091F1008091E200909113
:101B5000E3006817790709F03CCC2091F20030913E
:101B6000F3008091E4009091E5002817390709F00F
:101B700030CCFE01E759FF4F60817181CB0120E03D
:101B800030E00FEF1FEF6E010894C11CD11CDE0185
:101B9000A559BF4F1DC0FFEF8F3F9F0719F440E0CD
:101BA00050E008C0FC01EE0FFF1FEC0DFD1D44A529
:101BB00055A501970D31110549F00F5F1F4FF80131
:101BC000EE0FFF1FEA0FFB1F518340832F5F3F4F34
:101BD0006217730704F7C757DE4F19830883C95884
:101BE000D140FE01E759FF4F91838083C557DE4FF7
:101BF00019821882CB58D140CDC22FEF0F3F120768
:101C000019F4A0E0B0E00DC0F801EE0FFF1F8BE665
:101C100090E08C0F9D1FE80FF91FA081B18101504A
:101C200010406701B70120E030E025C0808191813C
:101C3000A817B90799F4F90163E0EE0FFF1F6A9541
:101C4000E1F7220F331FE20FF31FE40FF51FC15717
:101C5000DE4FF983E883CF58D14011C04F5F5F4F0B
:101C600032964430510511F72F5F3F4F685F7F4F29
:101C70002430310521F0FB0140E050E0D7CFAB9696
:101C8000EEADFFADAB97ED31F10579F03196AB9646
:101C9000FFAFEEAFAB97EE0FFF1F21E030E02C0F50
:101CA0003D1FE20FF31FB5A7A4A78DB79EB7CE9730
:101CB0000FB6F8949EBF0FBE8DBFADB7BEB71196DD
:101CC000FE01BD968EE301900D928150E1F7C701B0
:101CD000C157DE4F68817981CF58D140AE014D5F49
:101CE0005F4F0E948108AC01DE01A951BF4FFE0188
:101CF000BD968EE301900D928150E1F7CD5DDE4FF0
:101D0000A881B981C352D140AA0FBB1FE7EEF0E012
:101D1000EC0FFD1FAE0FBF1FE091E200F091E3005A
:101D200063E0EE0FFF1F6A95E1F7EE0DFF1D809156
:101D3000E4009091E500880F991FE80FF91F2DB777
:101D40003EB7225C3F4F0FB6F8943EBF0FBE2DBF8B
:101D50002D913C91808191812817390709F42AC27D
:101D60004230510509F05DC03FEF0F3F130719F4F2
:101D7000E0E0F0E00EC0F801EE0FFF1F8BE690E010
:101D80008C0F9D1FE80FF91F0190F081E02D01508D
:101D9000104020E030E028C08D919C911197E81709
:101DA000F90799F4D90193E0AA0FBB1F9A95E1F7BF
:101DB000220F331FA20FB31FA40FB51FC357DE4F4F
:101DC000B983A883CD58D14013C04F5F5F4F12969F
:101DD0004430510509F72F5F3F4F88E090E0C80E6F
:101DE000D91E2430310521F0D60140E050E0D4CF97
:101DF000C357DE4F88819981CD58D1406AE070E0A9
:101E00000E947114FB01B3E0EE0FFF1FBA95E1F7DA
:101E1000EE0DFF1DC357DE4F88819981CD58D1400B
:101E2000A0C14330510509F0A2C09FEF0F3F190731
:101E300019F4E0E0F0E00EC0F801EE0FFF1FABE692
:101E4000B0E0AC0FBD1FEA0FFB1F0190F081E02D49
:101E500001501040B70120E030E020C08D919C91EE
:101E60001197E817F90769F4190173E0220C331C84
:101E70007A95E1F7220F331F220E331E240E351EF2
:101E800011C04F5F5F4F12964430510539F72F5FF5
:101E90003F4F685F7F4F2430310521F0DB0140E088
:101EA00050E0DCCFC1016AE070E00E947114FB01D8
:101EB00033E0EE0FFF1F3A95E1F7EE0DFF1DC10174
:101EC0006AE070E00E947114880F991FE80FF91FF3
:101ED00011821082BFEF0F3F1B0719F4E0E0F0E022
:101EE0000EC0F801EE0FFF1F2BE630E02C0F3D1F58
:101EF000E20FF31F0190F081E02D0150104020E02F
:101F000030E022C08D919C911197E817F90769F490
:101F1000290183E0440C551C8A95E1F7220F331FF9
:101F2000420E531E440E551E13C04F5F5F4F129654
:101F30004430510539F72F5F3F4F88E090E0C80EDD
:101F4000D91E2430310521F0D60140E050E0DACF2F
:101F5000C2016AE070E00E947114FB01A3E0EE0F81
:101F6000FF1FAA95E1F7EE0DFF1DC201FAC0443034
:101F7000510509F000C19FEF0F3F190719F4E0E088
:101F8000F0E00EC0F801EE0FFF1FABE6B0E0AC0FC3
:101F9000BD1FEA0FFB1F0190F081E02D01501040A2
:101FA000B70120E030E020C08D919C911197E81797
:101FB000F90769F4390163E0660C771C6A95E1F76B
:101FC000220F331F620E731E640E751E11C04F5F09
:101FD0005F4F12964430510539F72F5F3F4F685FCE
:101FE0007F4F2430310521F0DB0140E050E0DCCFB1
:101FF000C3016AE070E00E947114FB0183E0EE0F00
:10200000FF1F8A95E1F7EE0DFF1DC3016AE070E046
:102010000E947114880F991FE80FF91F1182108216
:10202000BFEF0F3F1B0719F4E0E0F0E00EC0F8012E
:10203000EE0FFF1F2BE630E02C0F3D1FE20FF31FCA
:102040000190F081E02D01501040B70120E030E018
:1020500020C08D919C911197E817F90769F4490107
:1020600073E0880C991C7A95E1F7220F331F820EDA
:10207000931E840E951E11C04F5F5F4F1296443021
:10208000510539F72F5F3F4F685F7F4F243031058F
:1020900021F0DB0140E050E0DCCFC4016AE070E0F9
:1020A0000E947114FB0133E0EE0FFF1F3A95E1F738
:1020B000EE0DFF1DC4016AE070E00E947114880FEC
:1020C000991FE80FF91F118210823FEF0F3F13078E
:1020D00019F4E0E0F0E00EC0F801EE0FFF1F8BE610
:1020E00090E08C0F9D1FE80FF91F0190F081E02D0B
:1020F0000150104020E030E022C08D919C9111975A
:10210000E817F90769F4590183E0AA0CBB1C8A950A
:10211000E1F7220F331FA20EB31EA40EB51E13C08B
:102120004F5F5F4F12964430510539F72F5F3F4F95
:10213000A8E0B0E0CA0EDB1E2430310521F0D60144
:1021400040E050E0DACFC5016AE070E00E9471140F
:10215000FB01A3E0EE0FFF1FAA95E1F7EE0DFF1DB7
:10216000C5016AE070E00E947114880F991FE80FA2
:10217000F91F118210821C821B82C557DE4FE88135
:10218000F981CB58D1403196C557DE4FF983E883AA
:10219000CB58D140C557DE4F28813981CB58D1402B
:1021A000C757DE4F88819981C958D140821793075C
:1021B0000CF023CDFE01E759FF4FA081B181CD0185
:1021C00040E050E02FEF3FEF6E010894C11CD11C9E
:1021D0008E0107551F4F1DC0EFEF8F3F9E0719F46B
:1021E00060E070E008C0FC01EE0FFF1FEC0DFD1D6C
:1021F00064A575A501972D31310549F02F5F3F4F3B
:10220000F901EE0FFF1FE00FF11F718360834F5F35
:102210005F4FA417B50704F7FE01E759FF4F9183FD
:102220008083FE01E755FF4F35AF24AF2DB73EB792
:10223000205430400FB6F8943EBF0FBE2DBF2F5F25
:102240003F4FD9018EE301900D928150E1F7D90102
:10225000DF96FC92EE92DE970E94B707EDB7FEB7CD
:10226000E05CFF4F0FB6F894FEBF0FBEEDBFC45643
:10227000DE4F0FB6F894DEBF0FBECDBFCF91DF911A
:102280001F910F91FF90EF90DF90CF90BF90AF9094
:102290009F908F907F906F905F904F903F902F9086
:1022A0000895D401ED91FC91ED31F10509F0C4C818
:1022B000CDC8FF920F931F931ABA8FEF84BB81BBD7
:1022C00087BBE199FECF1FBA1EBAE09A8DB388236F
:1022D00009F077C081E088BB80E197E20197F1F7D0
:1022E00018BA80E593EC0197F1F704E610E03FE0BF
:1022F000F32E30C00E947E0288EE93E0F801319701
:10230000F1F70197D9F70E940202F5BA8091E00037
:102310009091E100039711F40E947E008091E0000B
:102320009091E100892B41F48091EC009091ED00B7
:10233000019711F40E9449008091E0009091E10022
:10234000892B41F48091EC009091ED00029711F4FB
:102350000E9449008091E0009091E100892B51F6A4
:102360008091EC009091ED00039709F0C3CF81E0DC
:1023700088BB80E293E024E630E0F9013197F1F781
:102380000197D9F718BA80E593EC0197F1F7E19935
:10239000FECF1FBA1EBA85E08DBB0FB6F894E29A45
:1023A000E19A0FBE2091EA00E199FECF81E090E032
:1023B0009FBB8EBB2DBB0FB6F894E29AE19A0FBE7D
:1023C0007EC241E048BB20E137E2C9010197F1F745
:1023D00018BA80E593ECFC013197F1F748BBF9019D
:1023E0003197F1F718BA0197F1F7E199FECF81E043
:1023F00090E09FBB8EBBE09A1DB30E947E0242E03C
:1024000050E0012F10E02CC0E199FECF5FBB4EBB26
:10241000E09A2DB3822F6AE00E946514E82FF0E065
:10242000822F0E946514EE0FFF1FEE0FFF1FE90FB2
:10243000F11DEE0FFF1FDF01A05ABF4F1D921C922E
:10244000DF01A058BF4F1D921C92DF01A056BF4F65
:102450001D921C92E054FF4F118210824F5F5F4F1C
:10246000401751078CF280E690E00E94A409809109
:102470007800909179002091E2003091E300409142
:10248000E4005091E500892B49F13093F10020934D
:10249000F0005093F3004093F20003E010E010933B
:1024A000E3000093E2001092E5001092E40080E85F
:1024B00090E00E94A4091093F1000093F0001092A4
:1024C000F3001092F2001092E3001092E2001093D9
:1024D000E5000093E40080EA90E01AC03093F10038
:1024E0002093F0005093F3004093F2008091F400A9
:1024F0009091F5009093E3008093E2008091E600D4
:102500009091E7009093E5008093E40080E890E0EC
:102510000E94A4098091E8009091E9000297C9F413
:102520000E947E0089E085BB88EE93E024E630E0DF
:10253000F9013197F1F70197D9F78FE085BB80ED6D
:1025400097E024E630E0F9013197F1F70197D9F7E8
:1025500016C089E085BB8CED95E024E630E0F901FA
:102560003197F1F70197D9F78FE085BB80ED97E0C0
:1025700024E630E0F9013197F1F70197D9F70E948D
:10258000B7010E9410018FE085BB88EE93E024E63E
:1025900030E0F9013197F1F70197D9F786E085BB73
:1025A00080E293E024E630E0F9013197F1F70197FA
:1025B000D9F70E947E020E9449000E947E020E947A
:1025C000490089E085BB8CED95E024E630E0F90117
:1025D0003197F1F70197D9F702C095BB01C09FE091
:1025E00089B385738133C9F789B38573813369F4FE
:1025F0008FE082BB80ED97E024E630E0F90131976F
:10260000F1F70197D9F70E944D010E9410018FE068
:1026100085BB88EE93E024E630E0F9013197F1F7CD
:102620000197D9F786E085BB80E293E024E630E0AD
:10263000F9013197F1F70197D9F70E947E020E94C4
:102640007E000E947E020E9449000E947E020E943B
:102650007E0089E085BB8CED95E024E630E0F90151
:102660003197F1F70197D9F78FE085BB88EE93E0BA
:1026700024E630E0F9013197F1F70197D9F70E948C
:10268000B7010E9410018FE085BB88EE93E024E63D
:1026900030E0F9013197F1F70197D9F786E085BB72
:1026A00080E293E024E630E0F9013197F1F70197F9
:1026B000D9F70E947E028091760090917700892B55
:1026C00091F00E947E000E947E020E947E0289E0BC
:1026D00085BB80E293E024E630E0F9013197F1F721
:1026E0000197D9F71AC081E090E09093F1008093B0
:1026F000F00083E090E09093F3008093F2009093D9
:10270000E3008093E2009093E5008093E40080EC86
:1027100090E00E94A4090E94490084E082BB80E608
:102720009AEE0197F1F78FE082BB8CEB92E024E602
:1027300030E0F9013197F1F70197D9F70E9494033E
:102740008FE085BB80ED97E024E630E0F90131971A
:10275000F1F70197D9F70E944D0186E085BB80E231
:1027600093E024E630E0F9013197F1F70197D9F7CA
:102770000E947E020E9449000E947E020E947E0208
:102780000E947E020E947E0089E085BB88EE93E075
:1027900024E630E0F9013197F1F70197D9F78FE09E
:1027A00085BB80ED97E024E630E0F9013197F1F741
:1027B0000197D9F70E94B7010E9410018FE085BBF5
:1027C00088EE93E024E630E0F9013197F1F70197C4
:1027D000D9F786E085BB80E293E024E630E0F9019A
:1027E0003197F1F70197D9F70E947E020E944900C4
:1027F0000E947E020E947E020E9449000E947E0288
:102800000E947E020E9449000E945B0364E062BB5A
:1028100020E43CE9C9010197F1F74FE042BB80E5B4
:1028200093ECFC013197F1F758E052BBF901319775
:10283000F1F742BBFC013197F1F762BBF901319727
:10284000F1F742BBFC013197F1F752BBF901319727
:10285000F1F742BB0197F1F70E9410010E947E023E
:102860000E94490089E085BB88EE93E024E630E0D1
:10287000F9013197F1F70197D9F78FE085BB81E036
:1028800088BB80E197E20197F1F718BA80E593ECF5
:102890000197F1F780E090E00BC0E199FECF9FBB7C
:1028A0008EBB1DBA0FB6F894E29AE19A0FBE01965C
:1028B0008A30910594F39093F9008093F80080E0BA
:1028C00090E01F910F91FF900895991B79E004C04B
:1028D000991F961708F0961B881F7A95C9F780955F
:1028E000089597FB092E07260AD077FD04D00CD057
:1028F00006D000201AF4709561957F4F0895F6F781
:10290000909581959F4F0895AA1BBB1B51E107C06D
:10291000AA1FBB1FA617B70710F0A61BB70B881F6F
:10292000991F5A95A9F780959095BC01CD010895FE
:04293000F894FFCF49
:102934000100080009001000020007000A000F004F
:10294400030006000B000E00040005000C000D003F
:102954000100080009001000020007000A000F002F
:10296400030006000B000E00040005000C000D001F
:102974000100080009001000020007000A000F000F
:10298400030006000B000E00040005000C000D00FF
:102994000100080009001000020007000A000F00EF
:1029A400030006000B000E00040005000C000D00DF
:0C29B400FFFF030003000300030002000B
:00000001FF
